:020000040000FA
:10000000082600204D0300005503000057030000A0
:10001000590300005B0300005D03000000000000C6
:100020000000000000000000000000005F0300006E
:10003000610300000000000063030000650300008E
:10004000670300006703000001070000F5030000DC
:1000500067030000670300006703000067030000F8
:1000600067030000670300006703000067030000E8
:1000700067030000670300006703000067030000D8
:1000800067030000670300006703000067030000C8
:1000900067030000670300006703000067030000B8
:1000A00067030000670300006703000067030000A8
:1000B000670300006703000000000000000000006C
:1000C0006703000067030000670300006703000088
:1000D00067030000670300006703000000000000E2
:1000E0000000000000000000000000000000000010
:1000F0000000000000000000000000000000000000
:1001000000000000000000000000000000000000EF
:1001100000000000000000000000000000000000DF
:1001200000000000000000000000000000000000CF
:1001300000000000000000000000000000000000BF
:1001400000000000000000000000000000000000AF
:10015000000000000000000000000000000000009F
:10016000000000000000000000000000000000008F
:10017000000000000000000000000000000000007F
:10018000000000000000000000000000000000006F
:10019000000000000000000000000000000000005F
:1001A000000000000000000000000000000000004F
:1001B000000000000000000000000000000000003F
:1001C000000000000000000000000000000000002F
:1001D000000000000000000000000000000000001F
:1001E000000000000000000000000000000000000F
:1001F00000000000000000000000000000000000FF
:10020000DFF80CD000F0E4F800480047390C00009B
:100210000826002030B4044654E8000F0D4644E898
:100220000053002BF8D1156030BC704730B4044641
:1002300054E8000F40EA010544E80053002BF7D1D1
:10024000156030BC704730B4044654E8000F00EA33
:10025000010544E80053002BF7D1156030BC70470E
:1002600030B4044654E8000F80EA010544E8005326
:10027000002BF7D1156030BC704730B4044654E809
:10028000000F00EB010544E80053002BF7D1156087
:1002900030BC704730B4044654E8000FA0EB0105B1
:1002A00044E80053002BF7D1156030BC70470000C4
:1002B00030B4044654E8000F0D4644E80053002BC8
:1002C000F8D1156030BC704730B4044654E8000FD4
:1002D00040EA010544E80053002BF7D1156030BC1B
:1002E000704730B4044654E8000F00EA010544E8C2
:1002F0000053002BF7D1156030BC704730B4044672
:1003000054E8000F80EA010544E80053002BF7D1C0
:10031000156030BC704730B4044654E8000F00EB61
:10032000010544E80053002BF7D1156030BC70473D
:1003300030B4044654E8000FA0EB010544E8005334
:10034000002BF7D1156030BC70470000064880478D
:1003500006480047FEE7FEE7FEE7FEE7FEE7FEE7AA
:10036000FEE7FEE7FEE7FEE70504000001020000ED
:1003700000487047DC25000040EA01039B0703D0DA
:1003800009E008C9121F08C0042AFAD203E011F8D4
:10039000013B00F8013B521EF9D27047D2B201E096
:1003A00000F8012B491EFBD270470022F6E710B57A
:1003B00013460A4604461946FFF7F0FF204610BDD3
:1003C000421C10F8011B0029FBD1801A7047000065
:1003D000064C074D06E0E06840F0010394E8070092
:1003E00098471034AC42F6D3FFF70EFF60260000AA
:1003F000802600000149024800F02EBB9C0000202E
:1004000000300040F0B5AE480023021D0178012500
:10041000101D4FF0805406290BD11678360708D1ED
:100420000678C6F30316032E06D0042E04D0052E3C
:1004300002D0062907D00EE0B4F82463A14FC6F31A
:1004400004263E6002E01678360704D10678C6F32B
:100450000316032E02D0062904D00FE09B4F9A4EBC
:100460007E670EE01678360708D10678C6F30316C5
:10047000032E06D0042E04D0052E02D0062907D064
:100480000EE0D4F84462924FC6F342363E6002E07A
:100490001678360704D10678C6F30316032E02D069
:1004A000062906D011E08B4E376827F08077376039
:1004B0000EE01678360708D10678C6F30316032E29
:1004C00006D0042E04D0052E02D006290AD011E051
:1004D0004FF08046C6F80C31C6F810317C4E361FFE
:1004E000336002E01678360704D10678C6F30316A7
:1004F000032E02D0062905D00CE0754F0326643781
:100500003E600AE01678360704D10678C6F3031673
:10051000032E02D006290DD014E06F4F05263E6051
:100520006D4E783635606C4E083633603F263F1D81
:100530003E6002E01678360704D10678C6F303164B
:10054000052E02D0062957D062E0644E3668644F0B
:100550003E60624E361D36683F1D3E605F4E083677
:1005600036683F1D3E605D4E0C3636683F1D3E606E
:100570005A4E103636683F1D3E60584E1436366867
:100580003F1D3E60554E18363668554F20373E6049
:10059000524E1C3636683F1D3E60504E203636683F
:1005A0003F1D3E604D4E243636683F1D3E604B4E2B
:1005B000283636683F1D3E60484E2C3636683F1D53
:1005C0003E60464E30363668454F40373E60434EBB
:1005D000343636683F1D3E60404E383636683F1D23
:1005E0003E603E4E3C3636683F1D3E603B4E4036D8
:1005F00036683F1D3E6002E01678360708D106785F
:10060000C6F30316032E06D0042E04D0052E02D006
:10061000062907D019E0D4F85812324A01F04F01E8
:10062000116002E0117809070FD10078C0F30310C0
:10063000032803D0042801D0052806D12A480168E0
:10064000C90702D06FF001010160224874380168C7
:1006500041F470010160BFF34F8FBFF36F8F4FF014
:100660001021D1F80002002803DBD1F80402002891
:1006700022DA1E4A15601E480468002CFCD015249E
:10068000C1F800420568002DFCD0C1F804420168A1
:100690000029FCD0136001680029FCD0BFF34F8F04
:1006A0000C48F0380168134A01F4E061114301601D
:1006B000BFF34F8F00BFFDE710490F480860F0BD42
:1006C000E00F00F0403501400DF0ADBA00C007402A
:1006D0003C050040FCED00E0105600400404001012
:1006E00020C50040E40E00400004004004E5014045
:1006F00000E401400400FA050090D00368000020E7
:100700000448017F04480029024901D001F017BEC6
:1007100001F086BDC40000200020004002E008C8AF
:10072000121F08C1002AFAD170477047002001E06B
:1007300001C1121F002AFBD170470000134C012198
:10074000208801EB004012A101F09CF801F054F95F
:1007500000F0C2FF0028FBD10F480068C00700D09E
:1007600000BE2088032101EB00400CA101F08AF8B3
:10077000BFF34F8F0848E43801680D4A01F4E06187
:1007800011430160BFF34F8F00BFFDE790000020D1
:10079000466174616C000000F0ED00E0486974206F
:1007A0007765616B2068616E646C657200000000A3
:1007B0000400FA050EB500210091CDE901106A464A
:1007C00044F20100FFF7BAFF0EBD00F003B800F0DD
:1007D00009B8000072B602480168491C0160704700
:1007E0000400002003490868401E086000D162B67A
:1007F00070470000040000202DE9F041064608681B
:100800000C46411C4FF0A0474FF0010506D005FAF9
:1008100000F1C7F80815206800F070FE6068411C00
:1008200002D0002100F061FE3079204901EB401038
:10083000A169007F00283068C0F8241525D0607DAC
:10084000227D31681043C1F86C05D4E9001230688C
:10085000C0F80C15C0F8142524E0A068411C02D093
:10086000002100F042FEE068411C05D08540C7F839
:100870000855E06800F042FED4E902123068C0F882
:100880000825C0F81015BDE8F081607D217D326833
:100890000843C2F86C05D4E900123068C0F814258A
:1008A000C0F80C15207D0128D7D0ECE7C40000204B
:1008B0002DE9F041861C0C4601270020FFF785FF3B
:1008C0000F4801682160D0E90012891A8268044645
:1008D000511AB51C07E000BF00F066F9D4E9000129
:1008E000401AA168091A491C8D42F5D82068304485
:1008F00020600020FFF76BFF3846BDE8F081000064
:10090000E401002030B482680468531C8360A15461
:10091000D0E901128A4202D330BC00F0D2BC30BC14
:1009200070470000034803C8814201D1012070478D
:1009300000207047E40100202DE9FC5F0E00834693
:10094000DDE90C47C6F1000098469246814600D486
:100950000846012503E000BF90FBFAF06D1C5045EE
:10096000FADAA84500D9454624B1002E01DB780704
:1009700000D5641EB80702D5B8F1000F0AD0F807F9
:1009800008D13CB1A54205D220215846641EFFF78C
:10099000B9FFF6E7002E02DA4E462D2102E0780775
:1009A00003D52B215846FFF7ADFF07F003000228BF
:1009B0000BD1B8F1000F08D13CB1A54205D23021CE
:1009C0005846641EFFF79EFFF6E7CDE90047434611
:1009D00052463146584601F02BFDBDE8FC9F000011
:1009E00070B50E460446007918494FF4A27501EB24
:1009F0004010017F2068A1B14FF4887101F0FBF82D
:100A00004FF49071206801F0F6F84FF4927120686D
:100A100001F0F1F82946206801F0EDF80C49206852
:100A200009E04FF48E7101F0D5F82946206801F0F5
:100A3000D1F808492068C0F80413206800F0A5FA2E
:100A40003146BDE8704000F084BA0000C4000020C8
:100A500010030200800002002DE9FF470D464FF40D
:100A600092770446394601F0A5F84FF002094FF09D
:100A700001084FF4827640B13946204601F09FF8D4
:100A80003146204601F096F8B0B3B24631462046D2
:100A900001F090F84FF0FF36002770B35146204622
:100AA00001F08DF805F10C0001AB07C883E80700E1
:100AB00095F8230078B1287B01282DD0D4F84C0577
:100AC000C0B28DF80600287B022828D0D4F84C0547
:100AD000C0B28DF807004FF4B071204601F06FF8F6
:100AE0004FF4AE71204601F06AF895F8250080B306
:100AF00095F8230068BB3CE000E013E0A868C4F868
:100B00000803C5F80890A868C4F80403C4F8208056
:100B1000C4F81480BDE8FF87D4F83C05D0E7D4F8CA
:100B20003C05D5E74FF4A471204601F048F8287B36
:100B300080B14FF40070C4F80002801CA860C4F8B3
:100B40000863A868C4F80403C4F80880C4F82080C7
:100B5000E0E708E005F10C0001AB07C883E80700F7
:100B600095F8250028B90020C4F80002AF60C4F849
:100B70000863D4F8C404C4F8C404810702D58DF80E
:100B8000008006E0400702D58DF8009001E08DF866
:100B9000007095F8250008B985F82470D5E9002182
:100BA00068469047B6E700002DE9FE43214DD5E9A0
:100BB000014704EA070005EB800605F583600C3663
:100BC00000F0DCF805F21440804600F0D7F80AE0A7
:100BD000C0F3891101EB9050641C044404EA07003F
:100BE00005EB80060C3630688107F1D0002069469D
:100BF00004EA070205EB8202641CD26841F8202057
:100C0000401C0228F4D3009800F00300022800984A
:100C10000AD0C0F383100444404600F0A9F800282D
:100C200000D06C60BDE8FE83032101EB905004EB23
:100C30009004F1E7E40100201CB5002000F084FEE0
:100C400008B1FFF7B7FD00F039FD14480321008813
:100C500001EB004012A100F015FE00BF00F03CFDCA
:100C60000028FBD101F05CF94020134C8DF8040002
:100C70000025012301AA2121104800F0EFF92046A8
:100C800000F0D0F8012301AA20210C48009500F0C3
:100C9000F7F9204600F0C6F8EBE7000090000020CE
:100CA0000D0A5457492073656E736F722065786121
:100CB0006D706C650000000020A10700E4240000B6
:100CC0002DE9F047C7880446181D16468946B0FB33
:100CD000F7F1B0FBF7F207FB12009A193A44D21C65
:100CE000B2FBF7F2DDF820A001E02468491E0029DC
:100CF000FBD13D1A8846B54216D818E0BAF1000F6C
:100D000005D0211809EB08002A46091D04E02044FB
:100D100009EB08012A46001DFFF72EFB002024687E
:100D2000761BA844B74201D9354600E03D46002E67
:100D3000E4D1BDE8F087000030B50B46024600F074
:100D400031FE63B10021094C0CE000BF01EB41030F
:100D500004EB830315685B88AB4202D1116000206D
:100D600030BD491C8142F1D3052030BD6C0000200C
:100D700008B500216A46FFF7B4FA08BD08B501219D
:100D80006A46FFF7A1FA009808BD70B50446002531
:100D90002846FFF71AFD21686268086890420ED95C
:100DA000401E08600178238AE26801FB0325227A4D
:100DB0002168101AC0B20A79824200D2087100205C
:100DC000FFF705FD284670BD70B505460C460020AE
:100DD000FFF7FBFCE868298A201AB0FBF1F12A68CA
:100DE0001068431C13600170BDE870400020FFF7DD
:100DF000EEBC10B530B1017A42680368891AC9B2F5
:100E00001A6006E00E2010BD03681A68541C1C60AE
:100E10001170491EC9B2F7D200680021017108465D
:100E200010BD000000283ED01F49204A096800BFBD
:100E300000BF00BF00BF00BF00BF00BF00BF9142A6
:100E40002FD000BF00BF00BF00BF00BF00BF00BF6A
:100E500000BF00BF00BF00BF00BF00BF00BF00BF9A
:100E600000BF00BF00BF00BF00BF00BF00BF00BF8A
:100E700000BF00BF00BF00BF00BF00BF00BF00BF7A
:100E800000BF00BF00BF00BF00BF00BF00BF00BF6A
:100E900000BF00BF00BF00BF00BF00BF00BF00BF5A
:100EA00000BF0138C3D17047680000200024F4005F
:100EB00000283ED01F49204A096800BF00BF00BF7C
:100EC00000BF00BF00BF00BF00BF91422FD000BFD6
:100ED00000BF00BF00BF00BF00BF00BF00BF00BF1A
:100EE00000BF00BF00BF00BF00BF00BF00BF00BF0A
:100EF00000BF00BF00BF00BF00BF00BF00BF00BFFA
:100F000000BF00BF00BF00BF00BF00BF00BF00BFE9
:100F100000BF00BF00BF00BF00BF00BF00BF00BFD9
:100F200000BF00BF00BF00BF00BF00BF00BF01384F
:100F3000C3D17047680000200024F40000F01F02B5
:100F4000012191404009800000F1E020C0F88011AB
:100F500070474907090E002806DA00F00F0202F177
:100F6000E02282F8141D03E000F1E02282F8001470
:100F700000F01F02012191404009800000F1E020B3
:100F8000C0F88012C0F800117047000B40B27047E3
:100F90000121B1EB507F01D1012070470020704743
:100FA0000121B1EB507F01D1012070470020704733
:100FB0000179064A01EB8101006802EBC1010622BA
:100FC000C0F80025022081F8220070479C00002014
:100FD00070B506460D4600791F4900EB800001EB15
:100FE000C00494F8220008B1082070BD0020C4E9B4
:100FF0000023A06084F8250084F82400A87B84F8EE
:101000002700687B10B1284600F00AFF296840F2EB
:101010000C60890001F1A041C1F8000769688900EE
:1010200001F1A041C1F80007D5E900123068C0F80D
:101030000815C0F80C25A968C0F82415206828B147
:101040003068297B000B40B2FFF783FF012084F852
:101050002200002070BD00009C0000203EB5074D1E
:101060002C68AD6800948DF80110019202958DF8FE
:1010700002300022694600F015F83EBDFC24000055
:101080003EB500250095069C8DF8011002958DF85F
:10109000023001920CB1202200E00022694600F0EB
:1010A00001F83EBD30B40379064C03EB830304EB37
:1010B000C304006813460A460146204630BC00F0CF
:1010C00047BF00009C0000202DE9F0410546007953
:1010D000164F904607EB40140E46E07E10B10820F4
:1010E000BDE8F081707F20772846FFF785FB5FEA37
:1010F000080060603169216003D0317F2846FFF726
:101100006FFC287907EB4010007F0028286801D089
:10111000082100E00421C0F800150020E0752076C9
:10112000A0750121E176A076DAE70000C400002076
:101130002DE9F047054600793F4E904606EB4014F6
:101140000F46207F18B10846FFF72AFF30B1284626
:1011500000F074F820B11120BDE8F0871020FBE703
:1011600084F81680A7600027A78228794FF001082D
:1011700006EB40143E46207F0028286825D04FF417
:101180009079494600F037FD4FF4AC7A5146286813
:1011900000F031FD2868A17DA268C0F84425C0F8A0
:1011A00048152868C0F808806068F0B94946286882
:1011B00000F01CFD80465146286800F017FD58EAF3
:1011C0000001F3D058BBA7750FE04FF48E7A51465B
:1011D00000F000FD2868C0F808802146286800F06B
:1011E000D3FF61684FF4807089B13046B4E751464F
:1011F000286800F0EAFC10B9A08A4845F7D1A08A17
:10120000484505D02146286800F0BEFF00E0814631
:10121000A08AA17D8842EAD3A08A484501D10F2641
:10122000D1E75146286800F0D0FC0028F9D02868A2
:10123000C0F80C80C7E70000C40000200079044912
:1012400001EB4010807D002800D001207047000095
:10125000C400002070B5044600791149002601EB56
:10126000401520682A7FC0F80065686888B1207939
:1012700001EB4010007F0028206801D0094901E0FF
:1012800008498C39C0F808132068FFF77EFEFFF785
:1012900055FE204600F0B6FCEE766E6070BD000094
:1012A000C4000020100302000FB408B50399002900
:1012B00004D004AA00926A4600F00FF801B05DF86D
:1012C00014FB10B582680446002A05D0D4E9040353
:1012D000216898470020A06010BD2DE9FC47914689
:1012E0000C00804676D014F8011B39B125290ED0A8
:1012F0004046FFF707FB20780028F4D198F80C004F
:10130000002867D04046BDE8FC47FFF7DABF002061
:10131000012221782B291BD02D2902D0302908D178
:1013200002E040F0010001E040F00200641C002AED
:10133000EFD100252A290ED02178A1F130020A2A06
:1013400011D205EB850201EB4205641C303DF1E74B
:1013500040F00400EAE7D9F800100B1DC9F800308E
:101360000968641C0D44217800232E290BD114F840
:10137000011FA1F130020A2A05D203EB830201EB1F
:101380004203303BF3E76C290DD068290BD0692963
:1013900021D00BDC252918D0582931D063290ED053
:1013A000642915D117E014F8011FECE7702969D002
:1013B000732932D075291BD0782909D120E0D9F8BA
:1013C0000000011DC9F8001001784046FFF79AFAA5
:1013D000641C90E76CE0D9F800100A1DC9F80020E1
:1013E0000968CDE900500A224046FFF7A5FAEFE769
:1013F000D9F800100A1DC9F8002009680A2206E081
:10140000D9F800100A1DC9F8002009681022CDE99A
:101410000050404601F00CF8DAE7D9F80010002738
:101420000A1DC9F800200E68C00705D112E0404629
:10143000761C7F1CFFF766FA31780029F7D104E0AB
:10144000202140466D1EFFF75DFABD42C0D9002D38
:10145000F6D1BDE74EB13046FEF7B2FF074604E0D5
:10146000202140466D1EFFF74DFABD4206D9002DE2
:10147000F6D103E04046761CFFF744FA31780029A4
:10148000F8D1A5E7D9F80000011DC9F800100568DA
:1014900030214046FFF736FA78214046FFF732FA0E
:1014A00008200021CDE90001034610222946B0E7BB
:1014B000BDE8FC8770B541EA4201DDE904564FF012
:1014C000A04441EA830141EA052104EB800041EA9E
:1014D0000641C0F8001770BD1CB5002100910B46F5
:1014E00001220191FFF7E6FF1CBD1CB500220B464F
:1014F000009211460192FFF7DDFF1CBD1CB50021D3
:1015000000910B46012201911146FFF7D3FF1CBD4C
:101510004FF0A04201218140C2F808157047000039
:1015200070B5184A0024D2F81034194609E00D7A33
:10153000A54205D1641C0A2CF7DB4FF0FF341FE0F5
:1015400049680029F3D1611C1AD00472D2F8101432
:1015500031B149684160D2F81014486000250BE0B1
:101560000021C2F810044160F8E700231A4629461A
:10157000204600F021FA6D1C00F014FAA842F4D8BD
:10158000204670BDE4010020F0B595B01C4615461C
:101590000F4608461A9E00F0E7FA182109A8FEF740
:1015A00004FF0E96CDE909540023082203A938460A
:1015B00000F0F4FA059806900498ADF81C0000209D
:1015C0008DF820000398082600F00300012802D0BF
:1015D00002281DD03CE003983346850AC0F3C200C0
:1015E0008DF81E0003980FA9C0F380008DF81F002E
:1015F0000398C0F38314A200384600F0CFFA09A87C
:10160000009006AB22460FA9284600F009FA1FE019
:101610000398840DC0F3C2008DF81E000398C0F338
:1016200080008DF81F00082C01D2254600E0082517
:1016300033462A460FA9384600F0B0FA2E44641B00
:1016400009AB06AA29460FA800F028F9002CEAD118
:10165000384600F092FA15B0F0BD7047012000F056
:10166000B7BD000010B50448FFF7F4FDBDE8104019
:10167000002000F0ADBD00000C00002008B5034ABA
:1016800000924023024AFFF77FFF08BD611D000062
:10169000E4000020084A012902EBC00005D002291D
:1016A00003D0032903D0042903D000207047007918
:1016B00070474079704700008026000010B5FFF7A2
:1016C000CDFF04210348FFF72BFF02490120487298
:1016D00010BD0000140000202DE9FE4FFFF722F995
:1016E00010B10020BDE8FE8F63480021C0F814143B
:1016F000D0E9014604EA060100EB81014FF0000940
:101700000AE000BFC1F3891202EB9151641C0C4442
:1017100004EA060100EB8101C9688A07F2D00021C2
:101720006A46804604EA060008EB8000641CC06834
:1017300042F82100491C0229F4D3009800F003006C
:10174000022800981CD0C0F38311062900D306217B
:1017500061F389100090C0F38310801C810047481A
:1017600000F0B9F9070075D000F0FEF94B460822E9
:101770006946384600F018FA09F10809002557E0D3
:10178000810D50228A46B2EB905F00D850210D4661
:1017900065F39F5000900831384800F09CF907002D
:1017A00058D000F0E1F94B4608226946384600F06F
:1017B000FBF904EA0601701A8000001D09F1080B0C
:1017C000854220D92C4E0C3630B1C2B208EB8101D3
:1017D000281A91460C3104E03146EAB200269146BF
:1017E0003046C5B25B46384600F0DEF90BEB090324
:1017F00026B12A463146384600F0D6F90AF10300F0
:1018000004EB90041AE008EB81015B462A46384657
:101810000C31F1E704EA060008EB80014B46042294
:1018200038460C31641C00F0BFF909F104096D1C45
:101830000098C0F38310A842ECD85FB11048FFF7BE
:1018400097FAD8F81054464605B140B1384600F032
:1018500094F97460FFF766F880F0010042E7687A57
:10186000012804D12A6828463946126890476D68D5
:10187000002DF4D1EAE70000E40100204425000037
:10188000F805002000231A4600F07EBA08B50123AF
:1018900000926A4600F078FA08BD00002DE9F04792
:1018A0000E4680461C46924608293ED894F80C9075
:1018B000002020731946104600F0FEF90025B542BD
:1018C00006D218F805201AA12046FFF7EDFC03E028
:1018D00019A12046FFF7E8FC6D1C082DEFD317A1D6
:1018E0002046FFF7E1FC0025B54210D218F805703C
:1018F000FEF73EFD0068C05D10F03E0F01D03A4695
:1019000000E02E220EA12046FFF7CEFC03E00DA141
:101910002046FFF7C9FC6D1C082DE5D301222146A6
:10192000504600F0ABF984F80C90BDE8F087000059
:101930002025303278000000202020007C000000AC
:101940002563000020000000114810B5FF218160D0
:10195000002101604160C0F81814C0F8141480F828
:101960001C140C4800F007F900280FD10A480B4955
:101970000B4B401AC108002005E000BF00EB4002FD
:1019800023F82200401C8842F8D3002010BD00003C
:10199000E401002044250000A0260000802600006D
:1019A0006C00002002480349401AC008704700003C
:1019B000A0260000802600001FB51146002443B970
:1019C00001A8FFF7B9F920B90348019900EBC1005C
:1019D000847904B0204610BD8026000013B5684607
:1019E000FFF7AAF908B100201CBD0248009950F881
:1019F00031001CBD8026000070B508480125D0F8D4
:101A0000104480F81C5405E065722168204649683E
:101A100088476468002CF7D170BD0000E401002005
:101A20002DE9FF4781460C9D00200C462F7B287333
:101A3000984616462946184600F03EF9072E42D22F
:101A4000DFE806F004090F161F2A3600494628462B
:101A5000FFF72AFC37E0494628462268FFF724FCB6
:101A600031E0D4E9002349462846FFF71DFC2AE06F
:101A7000A0680090D4E9002349462846FFF714FCEB
:101A800021E0D4E90201CDE90001D4E9002349466F
:101A90002846FFF709FC16E004F1080007C88DE8A6
:101AA0000700D4E9002349462846FFF7FDFB0AE07A
:101AB00004F108000FC88DE80F00D4E9002349465F
:101AC0002846FFF7F1FB00222946404600F0D6F8F1
:101AD0002F73BDE8FF872DE9F041058A80462D1F51
:101AE0004819C01CB0FBF5F0C6B24046FFF74DF9EF
:101AF000040019D00020207101206071E5800027CA
:101B00002546761EC4F800800BE04046FFF73DF9FD
:101B100060B16179491C6171286005467F1CC0F87D
:101B20000080B742F1D32046BDE8F081204600F0A6
:101B300002F80020F8E72DE9F041457901466B1ED7
:101B4000002201E00968521C9A42FBD30F6801464B
:101B5000002605E038460C68FFF736F92146761C6A
:101B6000AE42F7D3BDE8F08108B501216A46001DF9
:101B7000FEF783FB08BDFFF73CB938B50446001DEE
:101B800001216A46FEF786FB009810F0FF0F04D192
:101B90002046BDE83840FFF7CEBF38BD38B5012438
:101BA0000094FFF78DF838BD38B500240094FFF796
:101BB00087F838BD4058002800D00120704708B58C
:101BC000002242504058009008BD4058002800D0E4
:101BD0000120704708B5002242504058009008BDCF
:101BE000D0F80403084000D0012070474058002876
:101BF00000D00120704708B50022425040580090A4
:101C000008BD000070B5034600791B4901EB401088
:101C10001968027F4FF0FF30002AD1F80C25D1F867
:101C20001465D1F80855D1F8104504D0C1F80C0559
:101C3000C1F8140503E0C1F81405C1F80C051968D2
:101C4000C1F80805C1F81005501C02D01046FFF776
:101C500043FC701C02D03046FFF73EFC601C02D0F3
:101C60002046FFF739FC681C04D02846BDE87040C8
:101C7000FFF732BC70BD0000C400002010B50C4658
:101C8000C17949B11AB109A12046FFF70DFB2046E1
:101C9000BDE81040FFF715BB007A0028F3D00448D8
:101CA00004A102682046FFF7FFFAECE70D0A0000E6
:101CB000440000202573000070B50446C0790D462D
:101CC00000281CD1207A50B1A179A088FFF7E2FC4E
:101CD0000B4951F820200BA12846FFF7E5FAA08810
:101CE0000021FFF77BFE03460549A079143951F81E
:101CF00020202846BDE8704003A1FFF7D5BA70BD8B
:101D000044000020257300003C25733E2025733AD3
:101D10002000000070B50546C87D0C4600284FF431
:101D2000847128460AD0FFF755FFD5F81805627E62
:101D3000E1688854607E401C607670BDFFF74AFF02
:101D4000D5F8180570BD1FB501238DF800308DF84A
:101D500008100192D0E90012684690471FBD0000AC
:101D600010B5084C0020D2B22070201DFFF7E0F91A
:101D700008B1FEF71FFD6078002802D02178002905
:101D8000FAD010BD080000202DE9F843DFF88C8060
:101D90000446914698F81C04D8F808500F461E4691
:101DA000002838D169461846FEF782FD002832D057
:101DB0000098C44600EA050108EB810252F80C1FA6
:101DC00021F00301491C401C1160E30602D541F0DB
:101DD000040101E021F0040164F3C50166F38911F7
:101DE00067F39F21116000EA0501220C0CEB8101D1
:101DF000401CCA60009000200BE000BF009959F819
:101E0000203001EA05020CEB8202491CD360401C21
:101E10000091B042F2D3BDE8F8830000E401002055
:101E20002DE9F041044640F20C602168890001F17F
:101E3000A041C1F800076168890001F1A041C1F823
:101E400000072068FFF764FB6068FFF761FB21680B
:101E500040F20D60890001F1A041C1F800076168FE
:101E6000890001F1A041C1F800070420FFF720F824
:101E700000274FF0A04601252179D6F81005C8406B
:101E800010F0010F02D0002F1DD010E0217805FACC
:101E900001F0C6F80C050420FFF70AF82068FFF7E8
:101EA00037FB0420FFF704F87F1C092FE4DB2079BF
:101EB0008540C6F80C550420FEF7FAFF6068BDE8BF
:101EC000F041FFF725BBBDE8F081000010B50178B7
:101ED00000290ED10079074C012808D106480321BA
:101EE0006278008801EB004004A1FFF7CFFC0120DD
:101EF000207010BD000000209000002054656D701F
:101F0000657261747572653A2025642043656C734F
:101F100069757320646567726565732E0000000043
:101F20001FB5094B0FCB8DE80F0007480023074A68
:101F300069460838FFF74CF808B1FEF73BFC024849
:101F40000838FFF735F81FBDEC240000CD1E000057
:101F50002DE9F05F06461F4615460C464FF0000A75
:101F60004FF0080B4FF482795068FFF711F8002802
:101F70007ED04FF0FF30C4F8080396F8240028B153
:101F8000B068C4F804031120BDE8F09F780703D4BB
:101F9000F80601D4012000E0002086F8240095E82E
:101FA000070006F10C0383E80700C7F3001086F86A
:101FB00025006878C4F888054FF482712046FFF741
:101FC000FEFD4FF492712046FFF7F9FDF8074FF040
:101FD000010800D04046C4F85005B80701D5404676
:101FE00000E00020C4F84005287800286CD00128C3
:101FF0007DD002284ED0032814D04FF0070A3807AE
:1020000004D42878032801D044F80B8030680028D5
:102010006ED0780702D54FF40070B060B068C4F895
:102020000403ACE0A868FEF7B3FF08B34FF4807078
:10203000C4F80002A8786968C4F84415C4F84805D3
:102040004FF4A8712046FFF7BAFD4FF4B071204657
:10205000FFF7B5FD4FF4A4712046FFF7B0FDC4F8BB
:102060002080C4F8088000BF4FF4A871204600E02B
:1020700028E0FFF79FFD0028F6D04FF4A871204616
:10208000FFF79DFDE878A968C4F84415C4F8480531
:102090003C4815E0A8786968C4F84415C4F84805B8
:1020A000A868FEF775FF68B1E878A968C4F8341528
:1020B000C4F838054FF48450C4F8000240F20220FE
:1020C000B0609CE710205FE7A8786968C4F8441501
:1020D000C4F84805B8060FD54FF48070C4F8000264
:1020E0002848B0604FF4A4794946204601E00CE04E
:1020F0001BE0FFF764FD05E04FF40070C4F8000238
:10210000801CB060C4F8208079E7A8786968C4F8BA
:102110003415C4F838054FF48050C4F8000240F27A
:102120000220B0604FF0000BECE747464FF4827599
:102130004FF492780BE041462046FFF73BFD30B16B
:1021400041462046FFF73BFD27626761A9464946A5
:102150002046FFF72FFD0028EDD0D4F8C404C4F8C2
:10216000C404002186F8241048B10321820701D558
:1021700048F20121400701D548F202218A46504623
:1021800002E700000002040070B50C4605464FF45B
:102190008E71FFF71FFDA18AA068415CA08A401CD8
:1021A000A082C5F81C1570BD1FB500228DF8002057
:1021B0008DF80810816801918275D0E90012684697
:1021C00090471FBD0149012008707047080000209A
:1021D00010B588B0044620220E496846FEF7CCF8B8
:1021E00006200090C01F0190029003904FF0EB700A
:1021F00006900CB1084A00E0002269460748FEF745
:1022000063FF08B1FEF7D6FA0448001F447008B017
:1022100010BD000024250000C52100000C00002096
:102220002DE9FF470C4605464FF40071FFF7D8FC37
:1022300001274FF40178002618B34FF492794946EC
:102240002846FFF7C2FCE0B149462846FFF7C2FC2A
:10225000C5F80883A07E00B96F6002208DF80000E9
:10226000D5F88004C5F880040390E07D8DF808005F
:10227000E0680190E6752676D4E90012684690473A
:1022800027E004212846FFF7ABFC10B34FF484711C
:102290002846FFF79AFCE0B121462846FFF73AFDB1
:1022A000E07D617E884214D1207E38B1617EE26893
:1022B000E0752069E0602676667607E0A07E00B9CA
:1022C0006F60C5F80883E675617EE2682046FFF717
:1022D0003AFD4FF48E7841462846FFF776FC88B1E8
:1022E000A08AA17D884204D221462846FFF74CFFF0
:1022F00008E041462846FFF76DFCA17D11B120465C
:10230000FFF752FF4FF4A27841462846FFF75DFCE5
:10231000002812D041462846FFF75CFCA07E00B1A1
:102320002F60E07D002808D0E675617EE26804B089
:102330002046BDE8F047FFF706BDBDE8FF872DE961
:10234000FF410C464FF4927705463946FFF74EFCA5
:102350000026C0B139462846FFF74DFC02208DF813
:102360000000D5F88004C5F880040390D5F83C053A
:102370008DF80800E0680190E6752676D4E9001231
:102380006846904724E04FF4887739462846FFF79F
:102390002DFCE8B139462846FFF72DFCD5F83C0561
:1023A000C1B2E07D884213D1207E60B1E268D5F8E9
:1023B000000220F02000C5F80002207EE0752069B0
:1023C000E060267601E0E675E2682046FFF7BBFC98
:1023D0004FF4A27739462846FFF708FC68B1394622
:1023E0002846FFF708FCE07D38B1E675D5F83C05D6
:1023F000E268C1B22046FFF7A6FC4FF49076314662
:102400002846FFF7F3FB00280FD031462846FFF798
:10241000F2FBA07D002808D0D5F84C0504B0C1B26D
:102420002046BDE8F041FFF7BFBEBDE8FF810000D8
:102430002DE9F05F8346DDE90A4A994690460D464C
:102440000846012703E000BFB0FBF8F07F1C4045C1
:10245000FAD2B94500D94F465FEACA7012D18CB1A1
:102460005FEA8A7002D5B9F1000F01D0202607E09B
:10247000302605E031465846641EFEF743FA0CB19B
:10248000A742F7D35FF00106B9F1010F02D9A9F114
:10249000010903E0B5FBF6F0404502D306FB08F660
:1024A000F2E7DFF83C9000BFB5FBF6F000FB1655F5
:1024B00019F800105846FEF725FAB6FBF8F6002E7C
:1024C000F2D15FEACA7009D0002C07D0A74205D22A
:1024D00020215846641EFEF715FAF5E7BDE8F09F87
:1024E0000825000000300040000100001B00000033
:1024F0001A00000000009801020000000100000026
:10250000000000000000000030313233343536372F
:1025100038394142434445467D16000065160000A7
:102520005B160000FFFFFFFFFFFFFFFFFFFFFFFF46
:10253000FFFFFFFF00000000000000000000D601C8
:1025400007010000280000202000002028000020B3
:10255000240100201800000000404040404040405E
:102560004040414141414140404040404040404066
:10257000404040404040404040050202020202020A
:102580000202020202020202022020202020202059
:10259000202020020202020202029090909090906D
:1025A000101010101010101010101010101010102B
:1025B000101010100202020202028888888888889F
:1025C000080808080808080808080808080808088B
:1025D0000808080802020202400000005925000015
:1025E0007761726E696E67006465627567000000EE
:1025F0001B5B313B33306D001B5B306D0000000016
:102600001B5B313B33316D001B5B313B33326D0063
:102610001B5B313B33336D001B5B313B33346D004F
:102620001B5B313B33356D001B5B313B33366D003B
:102630001B5B313B33376D00696E666F0000000035
:102640006572726F72000000747769007561727450
:102650000000000062616C6C6F63000061707000CC
:10266000A0260000000000209C0000001C070000C5
:102670003C2700009C0000206C2500002C07000077
:1026800048260000000000004C260000000000006A
:1026900054260000000000005C260000000003003B
:1026A00000000000000000000000000000200040CA
:1026B00000000000182500000000000000000000DD
:1026C000000000000000000000000000000000000A
:1026D0000000000040260000E02500003826000031
:1026E000E8250000F8250000F02500000026000085
:1026F00008260000102600001826000020260000F2
:1027000028260000302600000090D00300000000C2
:1027100000000000000000000000000000000000B9
:1027200000000000000000000000000000000000A9
:0C2730000000000000000000000000009D
:0400000500000201F4
:00000001FF
